:020000040800F2
:1000000068060020290200083102000833020008B7
:10001000350200083702000839020008000000001D
:100020000000000000000000000000003B0200088B
:100030003D020008000000003F020008850800089B
:10004000430200084302000843020008430200087C
:10005000430200084302000843020008430200086C
:10006000430200084302000843020008430200085C
:10007000430200084302000843020008430200084C
:10008000430200084302000843020008430200083C
:10009000430200084302000843020008430200082C
:1000A000430200084302000843020008430200081C
:1000B000430200084302000843020008430200080C
:1000C00043020008430200084302000843020008FC
:1000D00043020008430200084302000843020008EC
:1000E00043020008430200084302000843020008DC
:1000F00043020008430200084302000843020008CC
:1001000043020008430200084302000843020008BB
:1001100043020008430200084302000843020008AB
:10012000430200084302000843020008430200089B
:10013000430200084302000843020008430200088B
:10014000430200084302000843020008430200087B
:10015000430200084302000843020008430200086B
:10016000430200084302000843020008430200085B
:100170004302000843020008430200080000000098
:10018000430200084302000800F002F800F03CF8C7
:100190000AA090E8000C82448344AAF10107DA45E2
:1001A00001D100F031F8AFF2090EBAE80F0013F0F8
:1001B000010F18BFFB1A43F0010318473C09000068
:1001C0005C090000103A24BF78C878C1FAD85207F9
:1001D00024BF30C830C144BF04680C6070470000C1
:1001E0000023002400250026103A28BF78C1FBD840
:1001F000520728BF30C148BF0B6070471FB500F0E1
:1002000069FC1FBD10B510BD00F031F81146FFF7B5
:10021000F5FF00F021FC00F04FF803B4FFF7F2FF08
:1002200003BC00F057F80000094880470948004720
:10023000FEE7FEE7FEE7FEE7FEE7FEE7FEE7FEE796
:10024000FEE7FEE704480549054A064B70470000F3
:10025000490900088901000868000020680600209C
:10026000680200206802002070477047704775469A
:1002700000F02CF8AE4605006946534620F0070012
:10028000854618B020B5FFF7DDFFBDE820404FF0F0
:1002900000064FF000074FF000084FF0000B21F070
:1002A0000701AC46ACE8C009ACE8C009ACE8C0093D
:1002B000ACE8C0098D46704710B50446AFF3008026
:1002C0002046BDE81040FFF7A8BF00000048704777
:1002D0000400002001491820ABBEFEE72600020002
:1002E0007047826942EA01428261704782690A432B
:1002F0008261704742694A404261704710B50024EC
:100300000F2000F093FA04463F2C03D1202102482D
:10031000FFF7F0FF10BD0000000C024010B55F4871
:10032000006840F008005D4908605D48006820F002
:1003300000705B4908600846006840F08070086003
:10034000081D006820F48050091D086054480C30D6
:10035000006820F0407052490C310860081F0068A6
:1003600040F08070091F08600846006820F00070A7
:1003700008604B48006820F0006049490860084662
:10038000006840F080600860081D006820F400509C
:10039000091D086042480C30006820F04060404968
:1003A0000C310860081F006840F08060091F086079
:1003B0000846006820F0006008603948006820F0B6
:1003C0000050374908600846006840F080500860D7
:1003D000081D006820F48040091D086030480C307A
:1003E000006820F040502E490C310860081F00685A
:1003F00040F08050091F08600846006820F0005057
:1004000008602748006820F0004025490860084639
:10041000006840F080400860081D006820F400403B
:10042000091D08601E480C30006820F040401C493F
:100430000C310860081F006840F08040091F086008
:100440000846006820F0004008601548006820F465
:100450000060134908600846006840F48060086046
:10046000081D006820F02000091D08600C480C30B1
:10047000006820F440600A490C310860081F0068D9
:1004800040F48060091F08600846006820F400609E
:10049000086020210248FFF729FF10BD30380240D4
:1004A000000C024010B59721202000F0D7F9D02190
:1004B000242000F0D3F910BD3F48006820F03F0031
:1004C0003D4908600846006847F6C07188433A49CC
:1004D00008600846006820F440300860084600685C
:1004E00020F0706008600846006820F48000086012
:1004F000081F006840F48030091F086000BF2E48C4
:10050000001F006800F400300028F8D02A48001DC1
:1005100000682949091D08600846006840F4A05099
:1005200008600846006840F400400860081F006842
:1005300040F00800091F08600846006840F4A84021
:1005400008600846006820F44030086008460068EB
:1005500040F4800008600846006840F0E0600860F1
:10056000081F006840F08070091F086000BF124833
:10057000001F006800F000700028F8D00F480068E5
:1005800040F2057108430D4908600B48001D0068E2
:1005900020F003000849091D08600846006840F083
:1005A0000200086000BF0448001D006800F0080059
:1005B0000028F8D07047000004380240003C024098
:1005C0008348006840F001008149086008460068DF
:1005D00040F0100008607E481430006840F48050FD
:1005E0007B49143108607B48006820F0800079491D
:1005F00008600846006840F040000860084640680F
:1006000020F0080048600846C06820F0C000C860BC
:100610000846806840F0400088600846806820F006
:10062000800088606C48006820F480606A49086037
:100630000846006840F4006008600846806840F49E
:10064000806088600846806840F4006088600846E2
:10065000C06820F44060C8600846006A40F480101A
:1006600008620846006A20F4001008620846006A22
:1006700040F4800008620846006A20F40000086226
:100680000846006820F4805008600846006840F47E
:10069000005008600846806840F480508860084632
:1006A000806840F4005088600846C06820F44050DC
:1006B000C8600846006A40F0807008620846006A18
:1006C00020F0007008620846006A40F0806008620E
:1006D0000846006A20F0006008620846006820F4BE
:1006E000804008600846006840F400400860084602
:1006F000806840F4804088600846806840F400408C
:1007000088600846C06820F44040C8600846006A17
:1007100040F0805008620846006A20F000500862ED
:100720000846006A40F0804008620846006A20F0EF
:100730000040086226480C38006840F48050244984
:100740000C3908600846006820F4805008600020DA
:10075000224908600846006840F004000860084626
:10076000006840F4007008600846006840F480703B
:1007700008600846006840F002000860084600680B
:1007800040F0010008600846006820F08000086022
:100790000846006820F4806008600846006820F47D
:1007A000006008600846006840F0080008600846DD
:1007B000006820F0100008600846006820F0200063
:1007C00008600846006840F040000860704700007C
:1007D000303802400010024000000240003001406A
:1007E00000BF0949896801F002010029F9D00649D2
:1007F000C86000BF0449896801F001010029F9D0EF
:100800000149C968C8B270470030014070B504465C
:100810000D4629462046FFF769FD70BD70B50446B8
:100820000D4629462046FFF75CFD70BD70B50446B5
:1008300008210948FFF7F2FF44F080042046FFF743
:10084000CFFF0F20FFF7CCFF054608210248FFF736
:10085000DDFF284670BD00000010024070B505465F
:100860000C4608210648FFF7D9FF2846FFF7B8FFD6
:100870002046FFF7B5FF08210148FFF7C7FF70BD0D
:10088000001002407047000070B5002000220223D3
:1008900000240221274D2D6805F00C0020B104280A
:1008A00006D0082834D107E0234D244E356033E0CC
:1008B000234D224E35602FE01E4D2D1F2D68C5F3B0
:1008C00080541C4D2D1F2D6805F03F0154B11C4D67
:1008D000B5FBF1F5174E361F3668C6F3881605FBD3
:1008E00006F209E0144DB5FBF1F5124E361F3668DD
:1008F000C6F3881605FB06F20E4D2D1F2D68C5F3B5
:1009000001456D1C6B00B2FBF3F50C4E356003E046
:10091000094D0A4E356000BF00BF064D2D68C5F376
:100920000315084E705D054D2D68C540034E3560BA
:1009300070BD0000083802400024F40000000020D0
:1009400000127A00DE0A00081448006840F47000C3
:10095000124908601248006840F001001049086020
:1009600000200F49083108600D4800680D49084013
:100970000B4908600C48091D0860081F006820F436
:100980008020091F0860002005490C3108604FF0E5
:1009900000600249803908607047000088ED00E07F
:1009A00000380240FFFFF6FE1030002470B500242E
:1009B00000252820FFF73AFF06462920FFF736FFDB
:1009C00046EA002004B22A20FFF730FF06462B201B
:1009D000FFF72CFF46EA002005B240F2DC508442CB
:1009E00005DD4FF480411A48FFF780FC12E01948FA
:1009F000844205DA4FF480511548FFF777FC09E08F
:100A00004FF480411248FFF76CFC4FF480511048BE
:100A1000FFF767FC40F2DC50854205DD4FF40051E2
:100A20000B48FFF763FC12E00A48854205DA4FF4F1
:100A300000410748FFF75AFC09E04FF40051044811
:100A4000FFF74FFC4FF400410148FFF74AFC70BD2F
:100A5000000C024024FAFFFFFFF72EFDFFF714FF02
:100A6000194800684FF47A72B0FBF2F1481EB0F1F9
:100A7000807F00D31BE0481E4FF0E02250615017EA
:100A80000F22002807DA13071D0E104B00F00F0489
:100A9000241F1D5503E013071C0E0D4B1C5400BFF3
:100AA00000204FF0E02290610720106100BFFFF7A7
:100AB00035FCFFF785FDFFF7F5FCFFF71FFC01E0B4
:100AC000FFF774FFFCE700000000002018ED00E0D5
:100AD00000E400E04FF04070E1EE100A70470000C3
:100AE00000000000000001020304060708090000DE
:100AF0000000010203040000180B000800000020A1
:100B000004000000C40100081C0B000804000020C1
:0C0B100064060000E00100080024F4006E
:040000050800018965
:00000001FF
